{
  "contractName": "Farmer",
  "abi": [
    {
      "inputs": [
        {
          "internalType": "address",
          "name": "animal",
          "type": "address"
        },
        {
          "internalType": "string",
          "name": "food",
          "type": "string"
        }
      ],
      "name": "feed",
      "outputs": [
        {
          "internalType": "string",
          "name": "",
          "type": "string"
        }
      ],
      "stateMutability": "view",
      "type": "function",
      "constant": true
    },
    {
      "inputs": [
        {
          "internalType": "address",
          "name": "animal",
          "type": "address"
        }
      ],
      "name": "speak",
      "outputs": [
        {
          "internalType": "string",
          "name": "",
          "type": "string"
        }
      ],
      "stateMutability": "view",
      "type": "function",
      "constant": true
    }
  ],
  "bytecode": "0x608060405234801561001057600080fd5b50610572806100206000396000f3fe608060405234801561001057600080fd5b50600436106100365760003560e01c80632fee32131461003b578063337612db1461006b575b600080fd5b61005560048036038101906100509190610213565b61009b565b60405161006291906102d0565b60405180910390f35b61008560048036038101906100809190610427565b610118565b60405161009291906102d0565b60405180910390f35b60608173ffffffffffffffffffffffffffffffffffffffff166350d853156040518163ffffffff1660e01b8152600401600060405180830381865afa1580156100e8573d6000803e3d6000fd5b505050506040513d6000823e3d601f19601f8201168201806040525081019061011191906104f3565b9050919050565b60608273ffffffffffffffffffffffffffffffffffffffff1663728d9b74836040518263ffffffff1660e01b815260040161015391906102d0565b600060405180830381865afa158015610170573d6000803e3d6000fd5b505050506040513d6000823e3d601f19601f8201168201806040525081019061019991906104f3565b905092915050565b6000604051905090565b600080fd5b600080fd5b600073ffffffffffffffffffffffffffffffffffffffff82169050919050565b60006101e0826101b5565b9050919050565b6101f0816101d5565b81146101fb57600080fd5b50565b60008135905061020d816101e7565b92915050565b600060208284031215610229576102286101ab565b5b6000610237848285016101fe565b91505092915050565b600081519050919050565b600082825260208201905092915050565b60005b8381101561027a57808201518184015260208101905061025f565b60008484015250505050565b6000601f19601f8301169050919050565b60006102a282610240565b6102ac818561024b565b93506102bc81856020860161025c565b6102c581610286565b840191505092915050565b600060208201905081810360008301526102ea8184610297565b905092915050565b600080fd5b600080fd5b7f4e487b7100000000000000000000000000000000000000000000000000000000600052604160045260246000fd5b61033482610286565b810181811067ffffffffffffffff82111715610353576103526102fc565b5b80604052505050565b60006103666101a1565b9050610372828261032b565b919050565b600067ffffffffffffffff821115610392576103916102fc565b5b61039b82610286565b9050602081019050919050565b82818337600083830152505050565b60006103ca6103c584610377565b61035c565b9050828152602081018484840111156103e6576103e56102f7565b5b6103f18482856103a8565b509392505050565b600082601f83011261040e5761040d6102f2565b5b813561041e8482602086016103b7565b91505092915050565b6000806040838503121561043e5761043d6101ab565b5b600061044c858286016101fe565b925050602083013567ffffffffffffffff81111561046d5761046c6101b0565b5b610479858286016103f9565b9150509250929050565b600061049661049184610377565b61035c565b9050828152602081018484840111156104b2576104b16102f7565b5b6104bd84828561025c565b509392505050565b600082601f8301126104da576104d96102f2565b5b81516104ea848260208601610483565b91505092915050565b600060208284031215610509576105086101ab565b5b600082015167ffffffffffffffff811115610527576105266101b0565b5b610533848285016104c5565b9150509291505056fea26469706673582212206ccf6549929a2cde64a39db005a48f266ec723d80798ec9438d867bec65e3a0264736f6c63430008120033",
  "immutableReferences": {},
  "source": "pragma solidity ^0.8.17;\r\n\r\ninterface Living {\r\n    function eat(string memory food) external returns (string memory);\r\n    function sleep() external returns (string memory);\r\n    function speak() external returns (string memory);\r\n}\r\n\r\ncontract HasName {\r\n    string internal _name;\r\n\r\n    constructor(string memory name) {\r\n        _name = name;\r\n    }\r\n\r\n    function getName() view public returns (string memory){\r\n        return _name;\r\n    }\r\n}\r\n\r\ncontract HasAge {\r\n    uint internal _age;\r\n\r\n    constructor(uint age) {\r\n        _age = age;\r\n    }\r\n\r\n    function getAge() view public returns (uint) {\r\n        return _age;\r\n    }\r\n}\r\n\r\nabstract contract Animal is Living {\r\n\r\n    function eat(string memory food) view virtual public returns (string memory) {\r\n        return string.concat(string.concat(\"Animal eats \",food));\r\n    }\r\n\r\n    function sleep() view public virtual returns (string memory) {\r\n        return \"ZzZzZz...\";\r\n    }\r\n    \r\n    function speak() view public virtual returns (string memory) {\r\n        return \".....\";\r\n    }\r\n}\r\n\r\nlibrary StringComparer {\r\n\r\n   function compare(string memory str1, string memory str2) public pure returns (bool) {\r\n        return keccak256(abi.encodePacked(str1)) == keccak256(abi.encodePacked(str2));\r\n    }\r\n    \r\n}\r\n\r\nabstract contract Herbivore is Animal, HasName, HasAge {\r\n    string constant PLANT = \"plant\";\r\n\r\n    modifier eatOnlyPlant(string memory food) {\r\n        require(StringComparer.compare(food, PLANT), \"Herbivores eat only plants.\");\r\n        _;\r\n    }\r\n\r\n    function eat(string memory food) view virtual override public eatOnlyPlant(food) returns (string memory) {\r\n        return super.eat(food);\r\n    }\r\n}\r\n\r\nabstract contract Carnivore is Animal, HasName, HasAge {\r\n    string constant MEAT = \"meat\";\r\n\r\n    modifier eatOnlyMeat(string memory food) {\r\n        require(StringComparer.compare(food, MEAT), \"Carnivores eat only meat.\");\r\n        _;\r\n    }\r\n    \r\n    function eat(string memory food) view public virtual override eatOnlyMeat(food) returns (string memory) {\r\n        return super.eat(food);\r\n    }\r\n}\r\n\r\nabstract  contract Omnivore is Animal, HasName, HasAge{\r\n    string constant MEAT = \"meat\";\r\n    string constant PLANT = \"plant\";\r\n\r\n    modifier eatBoth(string memory food) {\r\n        require(StringComparer.compare(food, MEAT) || StringComparer.compare(food, PLANT), \"Omnivores eat plant or meat\");\r\n        _;\r\n    }\r\n\r\n    function eat(string memory food) view public virtual override eatBoth(food) returns (string memory) {\r\n        return super.eat(food);\r\n    }\r\n}\r\n\r\n\r\n\r\ncontract Cow is Herbivore {\r\n\r\n    constructor(string memory name, uint age) HasName(name) HasAge(age){\r\n    }\r\n\r\n    function speak() view public override returns (string memory) {\r\n        return \"Moooo...\";\r\n    }\r\n}\r\n\r\ncontract Horse is Herbivore {\r\n\r\n    constructor(string memory name, uint age) HasName(name) HasAge(age) {\r\n    }\r\n\r\n    function speak() view public override returns(string memory) {\r\n        return \"neigh!\";\r\n    }\r\n}\r\n\r\ncontract Wolf is Carnivore {\r\n\r\n    constructor(string memory name, uint age) HasName(name) HasAge(age) {\r\n    }\r\n\r\n    function speak() view public override returns(string memory) {\r\n        return \"Awooo...\";\r\n    }\r\n}\r\n\r\ncontract Dog is Omnivore {\r\n    constructor(string memory name, uint age) HasName(name) HasAge(age){\r\n    }\r\n\r\n    function speak() view public override returns (string memory) {\r\n        return \"Woof\";\r\n    }\r\n }\r\n\r\n\r\ncontract Farmer {\r\n    //connect with address to particular animal to feed\r\n    function feed(address animal, string memory food) view public returns (string memory) {\r\n        return Animal(animal).eat(food);\r\n    }\r\n\r\n    function speak(address animal) view public returns (string memory) {\r\n        return Animal(animal).speak();\r\n    }\r\n}\r\n\r\n",
  "sourcePath": "E:\\practice\\dz\\contracts\\AnimalsOOP.sol",
  "compiler": {
    "name": "solc",
    "version": "0.8.18+commit.87f61d96.Emscripten.clang"
  },
  "schemaVersion": "3.4.11",
  "updatedAt": "2023-02-17T12:55:54.352Z",
  "networkType": "ethereum",
  "devdoc": {
    "kind": "dev",
    "methods": {},
    "version": 1
  },
  "userdoc": {
    "kind": "user",
    "methods": {},
    "version": 1
  }
}