{
  "contractName": "Horse",
  "abi": [
    {
      "inputs": [
        {
          "internalType": "string",
          "name": "name",
          "type": "string"
        },
        {
          "internalType": "uint256",
          "name": "age",
          "type": "uint256"
        }
      ],
      "stateMutability": "nonpayable",
      "type": "constructor"
    },
    {
      "inputs": [
        {
          "internalType": "string",
          "name": "food",
          "type": "string"
        }
      ],
      "name": "eat",
      "outputs": [
        {
          "internalType": "string",
          "name": "",
          "type": "string"
        }
      ],
      "stateMutability": "view",
      "type": "function",
      "constant": true
    },
    {
      "inputs": [],
      "name": "getAge",
      "outputs": [
        {
          "internalType": "uint256",
          "name": "",
          "type": "uint256"
        }
      ],
      "stateMutability": "view",
      "type": "function",
      "constant": true
    },
    {
      "inputs": [],
      "name": "getName",
      "outputs": [
        {
          "internalType": "string",
          "name": "",
          "type": "string"
        }
      ],
      "stateMutability": "view",
      "type": "function",
      "constant": true
    },
    {
      "inputs": [],
      "name": "sleep",
      "outputs": [
        {
          "internalType": "string",
          "name": "",
          "type": "string"
        }
      ],
      "stateMutability": "view",
      "type": "function",
      "constant": true
    },
    {
      "inputs": [],
      "name": "speak",
      "outputs": [
        {
          "internalType": "string",
          "name": "",
          "type": "string"
        }
      ],
      "stateMutability": "view",
      "type": "function",
      "constant": true
    }
  ],
  "bytecode": "0x60806040523480156200001157600080fd5b5060405162000e2b38038062000e2b83398181016040528101906200003791906200022a565b808280600090816200004a9190620004d1565b505080600181905550505050620005b8565b6000604051905090565b600080fd5b600080fd5b600080fd5b600080fd5b6000601f19601f8301169050919050565b7f4e487b7100000000000000000000000000000000000000000000000000000000600052604160045260246000fd5b620000c5826200007a565b810181811067ffffffffffffffff82111715620000e757620000e66200008b565b5b80604052505050565b6000620000fc6200005c565b90506200010a8282620000ba565b919050565b600067ffffffffffffffff8211156200012d576200012c6200008b565b5b62000138826200007a565b9050602081019050919050565b60005b838110156200016557808201518184015260208101905062000148565b60008484015250505050565b60006200018862000182846200010f565b620000f0565b905082815260208101848484011115620001a757620001a662000075565b5b620001b484828562000145565b509392505050565b600082601f830112620001d457620001d362000070565b5b8151620001e684826020860162000171565b91505092915050565b6000819050919050565b6200020481620001ef565b81146200021057600080fd5b50565b6000815190506200022481620001f9565b92915050565b6000806040838503121562000244576200024362000066565b5b600083015167ffffffffffffffff8111156200026557620002646200006b565b5b6200027385828601620001bc565b9250506020620002868582860162000213565b9150509250929050565b600081519050919050565b7f4e487b7100000000000000000000000000000000000000000000000000000000600052602260045260246000fd5b60006002820490506001821680620002e357607f821691505b602082108103620002f957620002f86200029b565b5b50919050565b60008190508160005260206000209050919050565b60006020601f8301049050919050565b600082821b905092915050565b600060088302620003637fffffffffffffffffffffffffffffffffffffffffffffffffffffffffffffffff8262000324565b6200036f868362000324565b95508019841693508086168417925050509392505050565b6000819050919050565b6000620003b2620003ac620003a684620001ef565b62000387565b620001ef565b9050919050565b6000819050919050565b620003ce8362000391565b620003e6620003dd82620003b9565b84845462000331565b825550505050565b600090565b620003fd620003ee565b6200040a818484620003c3565b505050565b5b81811015620004325762000426600082620003f3565b60018101905062000410565b5050565b601f82111562000481576200044b81620002ff565b620004568462000314565b8101602085101562000466578190505b6200047e620004758562000314565b8301826200040f565b50505b505050565b600082821c905092915050565b6000620004a66000198460080262000486565b1980831691505092915050565b6000620004c1838362000493565b9150826002028217905092915050565b620004dc8262000290565b67ffffffffffffffff811115620004f857620004f76200008b565b5b620005048254620002ca565b6200051182828562000436565b600060209050601f83116001811462000549576000841562000534578287015190505b620005408582620004b3565b865550620005b0565b601f1984166200055986620002ff565b60005b8281101562000583578489015182556001820191506020850194506020810190506200055c565b86831015620005a357848901516200059f601f89168262000493565b8355505b6001600288020188555050505b505050505050565b61086380620005c86000396000f3fe608060405234801561001057600080fd5b50600436106100575760003560e01c8063133a473e1461005c57806317d7de7c1461007a57806350d8531514610098578063728d9b74146100b6578063967e6e65146100e6575b600080fd5b610064610104565b60405161007191906103f4565b60405180910390f35b610082610141565b60405161008f91906103f4565b60405180910390f35b6100a06101d3565b6040516100ad91906103f4565b60405180910390f35b6100d060048036038101906100cb919061055f565b610210565b6040516100dd91906103f4565b60405180910390f35b6100ee610312565b6040516100fb91906105c1565b60405180910390f35b60606040518060400160405280600981526020017f5a7a5a7a5a7a2e2e2e0000000000000000000000000000000000000000000000815250905090565b6060600080546101509061060b565b80601f016020809104026020016040519081016040528092919081815260200182805461017c9061060b565b80156101c95780601f1061019e576101008083540402835291602001916101c9565b820191906000526020600020905b8154815290600101906020018083116101ac57829003601f168201915b5050505050905090565b60606040518060400160405280600681526020017f6e65696768210000000000000000000000000000000000000000000000000000815250905090565b60608173__StringComparer________________________633a96fdd7826040518060400160405280600581526020017f706c616e740000000000000000000000000000000000000000000000000000008152506040518363ffffffff1660e01b8152600401610281929190610686565b602060405180830381865af415801561029e573d6000803e3d6000fd5b505050506040513d601f19601f820116820180604052508101906102c291906106f5565b610301576040517f08c379a00000000000000000000000000000000000000000000000000000000081526004016102f89061076e565b60405180910390fd5b61030a8361031c565b915050919050565b6000600154905090565b60608160405160200161032f91906107f0565b60405160208183030381529060405260405160200161034e9190610816565b6040516020818303038152906040529050919050565b600081519050919050565b600082825260208201905092915050565b60005b8381101561039e578082015181840152602081019050610383565b60008484015250505050565b6000601f19601f8301169050919050565b60006103c682610364565b6103d0818561036f565b93506103e0818560208601610380565b6103e9816103aa565b840191505092915050565b6000602082019050818103600083015261040e81846103bb565b905092915050565b6000604051905090565b600080fd5b600080fd5b600080fd5b600080fd5b7f4e487b7100000000000000000000000000000000000000000000000000000000600052604160045260246000fd5b61046c826103aa565b810181811067ffffffffffffffff8211171561048b5761048a610434565b5b80604052505050565b600061049e610416565b90506104aa8282610463565b919050565b600067ffffffffffffffff8211156104ca576104c9610434565b5b6104d3826103aa565b9050602081019050919050565b82818337600083830152505050565b60006105026104fd846104af565b610494565b90508281526020810184848401111561051e5761051d61042f565b5b6105298482856104e0565b509392505050565b600082601f8301126105465761054561042a565b5b81356105568482602086016104ef565b91505092915050565b60006020828403121561057557610574610420565b5b600082013567ffffffffffffffff81111561059357610592610425565b5b61059f84828501610531565b91505092915050565b6000819050919050565b6105bb816105a8565b82525050565b60006020820190506105d660008301846105b2565b92915050565b7f4e487b7100000000000000000000000000000000000000000000000000000000600052602260045260246000fd5b6000600282049050600182168061062357607f821691505b602082108103610636576106356105dc565b5b50919050565b600082825260208201905092915050565b600061065882610364565b610662818561063c565b9350610672818560208601610380565b61067b816103aa565b840191505092915050565b600060408201905081810360008301526106a0818561064d565b905081810360208301526106b4818461064d565b90509392505050565b60008115159050919050565b6106d2816106bd565b81146106dd57600080fd5b50565b6000815190506106ef816106c9565b92915050565b60006020828403121561070b5761070a610420565b5b6000610719848285016106e0565b91505092915050565b7f4865726269766f72657320656174206f6e6c7920706c616e74732e0000000000600082015250565b6000610758601b8361036f565b915061076382610722565b602082019050919050565b600060208201905081810360008301526107878161074b565b9050919050565b7f416e696d616c2065617473200000000000000000000000000000000000000000815250565b600081905092915050565b60006107ca82610364565b6107d481856107b4565b93506107e4818560208601610380565b80840191505092915050565b60006107fb8261078e565b600c8201915061080b82846107bf565b915081905092915050565b600061082282846107bf565b91508190509291505056fea26469706673582212206e13f510a7bfe1f991d6f0de95be1d9cf8c86ad9f2071be8892a5b1dd01b87df64736f6c63430008120033",
  "immutableReferences": {},
  "source": "pragma solidity ^0.8.17;\r\n\r\ninterface Living {\r\n    function eat(string memory food) external returns (string memory);\r\n    function sleep() external returns (string memory);\r\n    function speak() external returns (string memory);\r\n}\r\n\r\ncontract HasName {\r\n    string internal _name;\r\n\r\n    constructor(string memory name) {\r\n        _name = name;\r\n    }\r\n\r\n    function getName() view public returns (string memory){\r\n        return _name;\r\n    }\r\n}\r\n\r\ncontract HasAge {\r\n    uint internal _age;\r\n\r\n    constructor(uint age) {\r\n        _age = age;\r\n    }\r\n\r\n    function getAge() view public returns (uint) {\r\n        return _age;\r\n    }\r\n}\r\n\r\nabstract contract Animal is Living {\r\n\r\n    function eat(string memory food) view virtual public returns (string memory) {\r\n        return string.concat(string.concat(\"Animal eats \",food));\r\n    }\r\n\r\n    function sleep() view public virtual returns (string memory) {\r\n        return \"ZzZzZz...\";\r\n    }\r\n    \r\n    function speak() view public virtual returns (string memory) {\r\n        return \".....\";\r\n    }\r\n}\r\n\r\nlibrary StringComparer {\r\n\r\n   function compare(string memory str1, string memory str2) public pure returns (bool) {\r\n        return keccak256(abi.encodePacked(str1)) == keccak256(abi.encodePacked(str2));\r\n    }\r\n    \r\n}\r\n\r\nabstract contract Herbivore is Animal, HasName, HasAge {\r\n    string constant PLANT = \"plant\";\r\n\r\n    modifier eatOnlyPlant(string memory food) {\r\n        require(StringComparer.compare(food, PLANT), \"Herbivores eat only plants.\");\r\n        _;\r\n    }\r\n\r\n    function eat(string memory food) view virtual override public eatOnlyPlant(food) returns (string memory) {\r\n        return super.eat(food);\r\n    }\r\n}\r\n\r\nabstract contract Carnivore is Animal, HasName, HasAge {\r\n    string constant MEAT = \"meat\";\r\n\r\n    modifier eatOnlyMeat(string memory food) {\r\n        require(StringComparer.compare(food, MEAT), \"Carnivores eat only meat.\");\r\n        _;\r\n    }\r\n    \r\n    function eat(string memory food) view public virtual override eatOnlyMeat(food) returns (string memory) {\r\n        return super.eat(food);\r\n    }\r\n}\r\n\r\nabstract  contract Omnivore is Animal, HasName, HasAge{\r\n    string constant MEAT = \"meat\";\r\n    string constant PLANT = \"plant\";\r\n\r\n    modifier eatBoth(string memory food) {\r\n        require(StringComparer.compare(food, MEAT) || StringComparer.compare(food, PLANT), \"Omnivores eat plant or meat\");\r\n        _;\r\n    }\r\n\r\n    function eat(string memory food) view public virtual override eatBoth(food) returns (string memory) {\r\n        return super.eat(food);\r\n    }\r\n}\r\n\r\n\r\n\r\ncontract Cow is Herbivore {\r\n\r\n    constructor(string memory name, uint age) HasName(name) HasAge(age){\r\n    }\r\n\r\n    function speak() view public override returns (string memory) {\r\n        return \"Moooo...\";\r\n    }\r\n}\r\n\r\ncontract Horse is Herbivore {\r\n\r\n    constructor(string memory name, uint age) HasName(name) HasAge(age) {\r\n    }\r\n\r\n    function speak() view public override returns(string memory) {\r\n        return \"neigh!\";\r\n    }\r\n}\r\n\r\ncontract Wolf is Carnivore {\r\n\r\n    constructor(string memory name, uint age) HasName(name) HasAge(age) {\r\n    }\r\n\r\n    function speak() view public override returns(string memory) {\r\n        return \"Awooo...\";\r\n    }\r\n}\r\n\r\ncontract Dog is Omnivore {\r\n    constructor(string memory name, uint age) HasName(name) HasAge(age){\r\n    }\r\n\r\n    function speak() view public override returns (string memory) {\r\n        return \"Woof\";\r\n    }\r\n }\r\n\r\n\r\ncontract Farmer {\r\n    //connect with address to particular animal to feed\r\n    function feed(address animal, string memory food) view public returns (string memory) {\r\n        return Animal(animal).eat(food);\r\n    }\r\n\r\n    function speak(address animal) view public returns (string memory) {\r\n        return Animal(animal).speak();\r\n    }\r\n}\r\n\r\n",
  "sourcePath": "E:\\practice\\dz\\contracts\\AnimalsOOP.sol",
  "compiler": {
    "name": "solc",
    "version": "0.8.18+commit.87f61d96.Emscripten.clang"
  },
  "schemaVersion": "3.4.11",
  "updatedAt": "2023-02-17T12:55:54.319Z",
  "networkType": "ethereum",
  "devdoc": {
    "kind": "dev",
    "methods": {},
    "version": 1
  },
  "userdoc": {
    "kind": "user",
    "methods": {},
    "version": 1
  }
}